{
	"Module 20 - Smart Contracts/Class_2_Activities/05-Stu_Deploying_Contract/Unsolved/PersonalSavings.sol": {
		"PersonalSavings": {
			"abi": [
				{
					"payable": true,
					"stateMutability": "payable",
					"type": "fallback"
				},
				{
					"constant": false,
					"inputs": [],
					"name": "deposit",
					"outputs": [],
					"payable": true,
					"stateMutability": "payable",
					"type": "function"
				},
				{
					"constant": true,
					"inputs": [],
					"name": "public_savings",
					"outputs": [
						{
							"internalType": "address payable",
							"name": "",
							"type": "address"
						}
					],
					"payable": false,
					"stateMutability": "view",
					"type": "function"
				},
				{
					"constant": false,
					"inputs": [
						{
							"internalType": "uint256",
							"name": "amount",
							"type": "uint256"
						},
						{
							"internalType": "address payable",
							"name": "recipient",
							"type": "address"
						}
					],
					"name": "withdraw",
					"outputs": [],
					"payable": false,
					"stateMutability": "nonpayable",
					"type": "function"
				}
			],
			"devdoc": {
				"methods": {}
			},
			"evm": {
				"assembly": "    /* \"Module 20 - Smart Contracts/Class_2_Activities/05-Stu_Deploying_Contract/Unsolved/PersonalSavings.sol\":2774:3313  contract PersonalSavings {... */\n  mstore(0x40, 0x80)\n    /* \"Module 20 - Smart Contracts/Class_2_Activities/05-Stu_Deploying_Contract/Unsolved/PersonalSavings.sol\":2843:2885  0x77B2aD074a1aF1AF2a408E3D48465E5F9ec75f45 */\n  0x77b2ad074a1af1af2a408e3d48465e5f9ec75f45\n    /* \"Module 20 - Smart Contracts/Class_2_Activities/05-Stu_Deploying_Contract/Unsolved/PersonalSavings.sol\":2803:2885  address payable public public_savings = 0x77B2aD074a1aF1AF2a408E3D48465E5F9ec75f45 */\n  0x00\n  dup1\n  0x0100\n  exp\n  dup2\n  sload\n  dup2\n  0xffffffffffffffffffffffffffffffffffffffff\n  mul\n  not\n  and\n  swap1\n  dup4\n  0xffffffffffffffffffffffffffffffffffffffff\n  and\n  mul\n  or\n  swap1\n  sstore\n  pop\n    /* \"Module 20 - Smart Contracts/Class_2_Activities/05-Stu_Deploying_Contract/Unsolved/PersonalSavings.sol\":2923:2965  0x873Ad450656C46cb564eaf418472A1c77d7327Ad */\n  0x873ad450656c46cb564eaf418472a1c77d7327ad\n    /* \"Module 20 - Smart Contracts/Class_2_Activities/05-Stu_Deploying_Contract/Unsolved/PersonalSavings.sol\":2889:2965  address payable private_savings = 0x873Ad450656C46cb564eaf418472A1c77d7327Ad */\n  0x01\n  exp(0x0100, 0x00)\n  dup2\n  sload\n  dup2\n  0xffffffffffffffffffffffffffffffffffffffff\n  mul\n  not\n  and\n  swap1\n  dup4\n  0xffffffffffffffffffffffffffffffffffffffff\n  and\n  mul\n  or\n  swap1\n  sstore\n  pop\n    /* \"Module 20 - Smart Contracts/Class_2_Activities/05-Stu_Deploying_Contract/Unsolved/PersonalSavings.sol\":2969:3003  string account_holder = \"Jane Doe\" */\n  mload(0x40)\n  dup1\n  0x40\n  add\n  0x40\n  mstore\n  dup1\n  0x08\n  dup2\n  mstore\n  0x20\n  add\n  0x4a616e6520446f65000000000000000000000000000000000000000000000000\n  dup2\n  mstore\n  pop\n  0x02\n  swap1\n  dup1\n  mload\n  swap1\n  0x20\n  add\n  swap1\n  tag_1\n  swap3\n  swap2\n  swap1\n  tag_2\n  jump\t// in\ntag_1:\n  pop\n    /* \"Module 20 - Smart Contracts/Class_2_Activities/05-Stu_Deploying_Contract/Unsolved/PersonalSavings.sol\":2774:3313  contract PersonalSavings {... */\n  callvalue\n    /* \"--CODEGEN--\":8:17   */\n  dup1\n    /* \"--CODEGEN--\":5:7   */\n  iszero\n  tag_3\n  jumpi\n    /* \"--CODEGEN--\":30:31   */\n  0x00\n    /* \"--CODEGEN--\":27:28   */\n  dup1\n    /* \"--CODEGEN--\":20:32   */\n  revert\n    /* \"--CODEGEN--\":5:7   */\ntag_3:\n    /* \"Module 20 - Smart Contracts/Class_2_Activities/05-Stu_Deploying_Contract/Unsolved/PersonalSavings.sol\":2774:3313  contract PersonalSavings {... */\n  pop\n  jump(tag_4)\ntag_2:\n  dup3\n  dup1\n  sload\n  0x01\n  dup2\n  0x01\n  and\n  iszero\n  0x0100\n  mul\n  sub\n  and\n  0x02\n  swap1\n  div\n  swap1\n  0x00\n  mstore\n  keccak256(0x00, 0x20)\n  swap1\n  0x1f\n  add\n  0x20\n  swap1\n  div\n  dup2\n  add\n  swap3\n  dup3\n  0x1f\n  lt\n  tag_6\n  jumpi\n  dup1\n  mload\n  not(0xff)\n  and\n  dup4\n  dup1\n  add\n  or\n  dup6\n  sstore\n  jump(tag_5)\ntag_6:\n  dup3\n  dup1\n  add\n  0x01\n  add\n  dup6\n  sstore\n  dup3\n  iszero\n  tag_5\n  jumpi\n  swap2\n  dup3\n  add\ntag_7:\n  dup3\n  dup2\n  gt\n  iszero\n  tag_8\n  jumpi\n  dup3\n  mload\n  dup3\n  sstore\n  swap2\n  0x20\n  add\n  swap2\n  swap1\n  0x01\n  add\n  swap1\n  jump(tag_7)\ntag_8:\ntag_5:\n  pop\n  swap1\n  pop\n  tag_9\n  swap2\n  swap1\n  tag_10\n  jump\t// in\ntag_9:\n  pop\n  swap1\n  jump\t// out\ntag_10:\n  tag_11\n  swap2\n  swap1\ntag_12:\n  dup1\n  dup3\n  gt\n  iszero\n  tag_13\n  jumpi\n  0x00\n  dup2\n  0x00\n  swap1\n  sstore\n  pop\n  0x01\n  add\n  jump(tag_12)\ntag_13:\n  pop\n  swap1\n  jump\ntag_11:\n  swap1\n  jump\t// out\ntag_4:\n  dataSize(sub_0)\n  dup1\n  dataOffset(sub_0)\n  0x00\n  codecopy\n  0x00\n  return\nstop\n\nsub_0: assembly {\n        /* \"Module 20 - Smart Contracts/Class_2_Activities/05-Stu_Deploying_Contract/Unsolved/PersonalSavings.sol\":2774:3313  contract PersonalSavings {... */\n      mstore(0x40, 0x80)\n      jumpi(tag_1, lt(calldatasize, 0x04))\n      shr(0xe0, calldataload(0x00))\n      dup1\n      0xf714ce\n      eq\n      tag_2\n      jumpi\n      dup1\n      0xa3709963\n      eq\n      tag_3\n      jumpi\n      dup1\n      0xd0e30db0\n      eq\n      tag_4\n      jumpi\n    tag_1:\n      stop\n        /* \"Module 20 - Smart Contracts/Class_2_Activities/05-Stu_Deploying_Contract/Unsolved/PersonalSavings.sol\":3008:3231  function withdraw(uint amount, address payable recipient) public {... */\n    tag_2:\n      callvalue\n        /* \"--CODEGEN--\":8:17   */\n      dup1\n        /* \"--CODEGEN--\":5:7   */\n      iszero\n      tag_7\n      jumpi\n        /* \"--CODEGEN--\":30:31   */\n      0x00\n        /* \"--CODEGEN--\":27:28   */\n      dup1\n        /* \"--CODEGEN--\":20:32   */\n      revert\n        /* \"--CODEGEN--\":5:7   */\n    tag_7:\n        /* \"Module 20 - Smart Contracts/Class_2_Activities/05-Stu_Deploying_Contract/Unsolved/PersonalSavings.sol\":3008:3231  function withdraw(uint amount, address payable recipient) public {... */\n      pop\n      tag_8\n      0x04\n      dup1\n      calldatasize\n      sub\n        /* \"--CODEGEN--\":13:15   */\n      0x40\n        /* \"--CODEGEN--\":8:11   */\n      dup2\n        /* \"--CODEGEN--\":5:16   */\n      lt\n        /* \"--CODEGEN--\":2:4   */\n      iszero\n      tag_9\n      jumpi\n        /* \"--CODEGEN--\":29:30   */\n      0x00\n        /* \"--CODEGEN--\":26:27   */\n      dup1\n        /* \"--CODEGEN--\":19:31   */\n      revert\n        /* \"--CODEGEN--\":2:4   */\n    tag_9:\n        /* \"Module 20 - Smart Contracts/Class_2_Activities/05-Stu_Deploying_Contract/Unsolved/PersonalSavings.sol\":3008:3231  function withdraw(uint amount, address payable recipient) public {... */\n      dup2\n      add\n      swap1\n      dup1\n      dup1\n      calldataload\n      swap1\n      0x20\n      add\n      swap1\n      swap3\n      swap2\n      swap1\n      dup1\n      calldataload\n      0xffffffffffffffffffffffffffffffffffffffff\n      and\n      swap1\n      0x20\n      add\n      swap1\n      swap3\n      swap2\n      swap1\n      pop\n      pop\n      pop\n      tag_10\n      jump\t// in\n    tag_8:\n      stop\n        /* \"Module 20 - Smart Contracts/Class_2_Activities/05-Stu_Deploying_Contract/Unsolved/PersonalSavings.sol\":2803:2885  address payable public public_savings = 0x77B2aD074a1aF1AF2a408E3D48465E5F9ec75f45 */\n    tag_3:\n      callvalue\n        /* \"--CODEGEN--\":8:17   */\n      dup1\n        /* \"--CODEGEN--\":5:7   */\n      iszero\n      tag_11\n      jumpi\n        /* \"--CODEGEN--\":30:31   */\n      0x00\n        /* \"--CODEGEN--\":27:28   */\n      dup1\n        /* \"--CODEGEN--\":20:32   */\n      revert\n        /* \"--CODEGEN--\":5:7   */\n    tag_11:\n        /* \"Module 20 - Smart Contracts/Class_2_Activities/05-Stu_Deploying_Contract/Unsolved/PersonalSavings.sol\":2803:2885  address payable public public_savings = 0x77B2aD074a1aF1AF2a408E3D48465E5F9ec75f45 */\n      pop\n      tag_12\n      tag_13\n      jump\t// in\n    tag_12:\n      mload(0x40)\n      dup1\n      dup3\n      0xffffffffffffffffffffffffffffffffffffffff\n      and\n      0xffffffffffffffffffffffffffffffffffffffff\n      and\n      dup2\n      mstore\n      0x20\n      add\n      swap2\n      pop\n      pop\n      mload(0x40)\n      dup1\n      swap2\n      sub\n      swap1\n      return\n        /* \"Module 20 - Smart Contracts/Class_2_Activities/05-Stu_Deploying_Contract/Unsolved/PersonalSavings.sol\":3235:3274  function deposit() public payable {... */\n    tag_4:\n      tag_14\n      tag_15\n      jump\t// in\n    tag_14:\n      stop\n        /* \"Module 20 - Smart Contracts/Class_2_Activities/05-Stu_Deploying_Contract/Unsolved/PersonalSavings.sol\":3008:3231  function withdraw(uint amount, address payable recipient) public {... */\n    tag_10:\n        /* \"Module 20 - Smart Contracts/Class_2_Activities/05-Stu_Deploying_Contract/Unsolved/PersonalSavings.sol\":3096:3110  public_savings */\n      0x00\n      dup1\n      swap1\n      sload\n      swap1\n      0x0100\n      exp\n      swap1\n      div\n      0xffffffffffffffffffffffffffffffffffffffff\n      and\n        /* \"Module 20 - Smart Contracts/Class_2_Activities/05-Stu_Deploying_Contract/Unsolved/PersonalSavings.sol\":3083:3110  recipient == public_savings */\n      0xffffffffffffffffffffffffffffffffffffffff\n      and\n        /* \"Module 20 - Smart Contracts/Class_2_Activities/05-Stu_Deploying_Contract/Unsolved/PersonalSavings.sol\":3083:3092  recipient */\n      dup2\n        /* \"Module 20 - Smart Contracts/Class_2_Activities/05-Stu_Deploying_Contract/Unsolved/PersonalSavings.sol\":3083:3110  recipient == public_savings */\n      0xffffffffffffffffffffffffffffffffffffffff\n      and\n      eq\n        /* \"Module 20 - Smart Contracts/Class_2_Activities/05-Stu_Deploying_Contract/Unsolved/PersonalSavings.sol\":3083:3177  recipient == public_savings || recipient == private_savings && address(this).balance >= amount */\n      dup1\n      tag_17\n      jumpi\n      pop\n        /* \"Module 20 - Smart Contracts/Class_2_Activities/05-Stu_Deploying_Contract/Unsolved/PersonalSavings.sol\":3127:3142  private_savings */\n      0x01\n      0x00\n      swap1\n      sload\n      swap1\n      0x0100\n      exp\n      swap1\n      div\n      0xffffffffffffffffffffffffffffffffffffffff\n      and\n        /* \"Module 20 - Smart Contracts/Class_2_Activities/05-Stu_Deploying_Contract/Unsolved/PersonalSavings.sol\":3114:3142  recipient == private_savings */\n      0xffffffffffffffffffffffffffffffffffffffff\n      and\n        /* \"Module 20 - Smart Contracts/Class_2_Activities/05-Stu_Deploying_Contract/Unsolved/PersonalSavings.sol\":3114:3123  recipient */\n      dup2\n        /* \"Module 20 - Smart Contracts/Class_2_Activities/05-Stu_Deploying_Contract/Unsolved/PersonalSavings.sol\":3114:3142  recipient == private_savings */\n      0xffffffffffffffffffffffffffffffffffffffff\n      and\n      eq\n        /* \"Module 20 - Smart Contracts/Class_2_Activities/05-Stu_Deploying_Contract/Unsolved/PersonalSavings.sol\":3114:3177  recipient == private_savings && address(this).balance >= amount */\n      dup1\n      iszero\n      tag_18\n      jumpi\n      pop\n        /* \"Module 20 - Smart Contracts/Class_2_Activities/05-Stu_Deploying_Contract/Unsolved/PersonalSavings.sol\":3171:3177  amount */\n      dup2\n        /* \"Module 20 - Smart Contracts/Class_2_Activities/05-Stu_Deploying_Contract/Unsolved/PersonalSavings.sol\":3146:3167  address(this).balance */\n      selfbalance\n        /* \"Module 20 - Smart Contracts/Class_2_Activities/05-Stu_Deploying_Contract/Unsolved/PersonalSavings.sol\":3146:3177  address(this).balance >= amount */\n      lt\n      iszero\n        /* \"Module 20 - Smart Contracts/Class_2_Activities/05-Stu_Deploying_Contract/Unsolved/PersonalSavings.sol\":3114:3177  recipient == private_savings && address(this).balance >= amount */\n    tag_18:\n        /* \"Module 20 - Smart Contracts/Class_2_Activities/05-Stu_Deploying_Contract/Unsolved/PersonalSavings.sol\":3083:3177  recipient == public_savings || recipient == private_savings && address(this).balance >= amount */\n    tag_17:\n        /* \"Module 20 - Smart Contracts/Class_2_Activities/05-Stu_Deploying_Contract/Unsolved/PersonalSavings.sol\":3079:3227  if (recipient == public_savings || recipient == private_savings && address(this).balance >= amount) {... */\n      iszero\n      tag_19\n      jumpi\n        /* \"Module 20 - Smart Contracts/Class_2_Activities/05-Stu_Deploying_Contract/Unsolved/PersonalSavings.sol\":3194:3203  recipient */\n      dup1\n        /* \"Module 20 - Smart Contracts/Class_2_Activities/05-Stu_Deploying_Contract/Unsolved/PersonalSavings.sol\":3194:3212  recipient.transfer */\n      0xffffffffffffffffffffffffffffffffffffffff\n      and\n        /* \"Module 20 - Smart Contracts/Class_2_Activities/05-Stu_Deploying_Contract/Unsolved/PersonalSavings.sol\":3194:3220  recipient.transfer(amount) */\n      0x08fc\n        /* \"Module 20 - Smart Contracts/Class_2_Activities/05-Stu_Deploying_Contract/Unsolved/PersonalSavings.sol\":3213:3219  amount */\n      dup4\n        /* \"Module 20 - Smart Contracts/Class_2_Activities/05-Stu_Deploying_Contract/Unsolved/PersonalSavings.sol\":3194:3220  recipient.transfer(amount) */\n      swap1\n      dup2\n      iszero\n      mul\n      swap1\n      mload(0x40)\n      0x00\n      mload(0x40)\n      dup1\n      dup4\n      sub\n      dup2\n      dup6\n      dup9\n      dup9\n      call\n      swap4\n      pop\n      pop\n      pop\n      pop\n      iszero\n        /* \"--CODEGEN--\":8:17   */\n      dup1\n        /* \"--CODEGEN--\":5:7   */\n      iszero\n      tag_20\n      jumpi\n        /* \"--CODEGEN--\":45:61   */\n      returndatasize\n        /* \"--CODEGEN--\":42:43   */\n      0x00\n        /* \"--CODEGEN--\":39:40   */\n      dup1\n        /* \"--CODEGEN--\":24:62   */\n      returndatacopy\n        /* \"--CODEGEN--\":77:93   */\n      returndatasize\n        /* \"--CODEGEN--\":74:75   */\n      0x00\n        /* \"--CODEGEN--\":67:94   */\n      revert\n        /* \"--CODEGEN--\":5:7   */\n    tag_20:\n        /* \"Module 20 - Smart Contracts/Class_2_Activities/05-Stu_Deploying_Contract/Unsolved/PersonalSavings.sol\":3194:3220  recipient.transfer(amount) */\n      pop\n        /* \"Module 20 - Smart Contracts/Class_2_Activities/05-Stu_Deploying_Contract/Unsolved/PersonalSavings.sol\":3187:3220  return recipient.transfer(amount) */\n      jump(tag_16)\n        /* \"Module 20 - Smart Contracts/Class_2_Activities/05-Stu_Deploying_Contract/Unsolved/PersonalSavings.sol\":3079:3227  if (recipient == public_savings || recipient == private_savings && address(this).balance >= amount) {... */\n    tag_19:\n        /* \"Module 20 - Smart Contracts/Class_2_Activities/05-Stu_Deploying_Contract/Unsolved/PersonalSavings.sol\":3008:3231  function withdraw(uint amount, address payable recipient) public {... */\n    tag_16:\n      pop\n      pop\n      jump\t// out\n        /* \"Module 20 - Smart Contracts/Class_2_Activities/05-Stu_Deploying_Contract/Unsolved/PersonalSavings.sol\":2803:2885  address payable public public_savings = 0x77B2aD074a1aF1AF2a408E3D48465E5F9ec75f45 */\n    tag_13:\n      0x00\n      dup1\n      swap1\n      sload\n      swap1\n      0x0100\n      exp\n      swap1\n      div\n      0xffffffffffffffffffffffffffffffffffffffff\n      and\n      dup2\n      jump\t// out\n        /* \"Module 20 - Smart Contracts/Class_2_Activities/05-Stu_Deploying_Contract/Unsolved/PersonalSavings.sol\":3235:3274  function deposit() public payable {... */\n    tag_15:\n      jump\t// out\n\n    auxdata: 0xa265627a7a72315820c7fdd3e0555caecb8eb2581db497bb9b35dda8077a841a706388a0b5dc5003c864736f6c63430005110032\n}\n",
				"bytecode": {
					"linkReferences": {},
					"object": "60806040527377b2ad074a1af1af2a408e3d48465e5f9ec75f456000806101000a81548173ffffffffffffffffffffffffffffffffffffffff021916908373ffffffffffffffffffffffffffffffffffffffff16021790555073873ad450656c46cb564eaf418472a1c77d7327ad600160006101000a81548173ffffffffffffffffffffffffffffffffffffffff021916908373ffffffffffffffffffffffffffffffffffffffff1602179055506040518060400160405280600881526020017f4a616e6520446f65000000000000000000000000000000000000000000000000815250600290805190602001906100f892919061010b565b5034801561010557600080fd5b506101b0565b828054600181600116156101000203166002900490600052602060002090601f016020900481019282601f1061014c57805160ff191683800117855561017a565b8280016001018555821561017a579182015b8281111561017957825182559160200191906001019061015e565b5b509050610187919061018b565b5090565b6101ad91905b808211156101a9576000816000905550600101610191565b5090565b90565b610257806101bf6000396000f3fe6080604052600436106100335760003560e01c8062f714ce14610035578063a370996314610090578063d0e30db0146100e7575b005b34801561004157600080fd5b5061008e6004803603604081101561005857600080fd5b8101908080359060200190929190803573ffffffffffffffffffffffffffffffffffffffff1690602001909291905050506100f1565b005b34801561009c57600080fd5b506100a56101fb565b604051808273ffffffffffffffffffffffffffffffffffffffff1673ffffffffffffffffffffffffffffffffffffffff16815260200191505060405180910390f35b6100ef610220565b005b6000809054906101000a900473ffffffffffffffffffffffffffffffffffffffff1673ffffffffffffffffffffffffffffffffffffffff168173ffffffffffffffffffffffffffffffffffffffff1614806101a55750600160009054906101000a900473ffffffffffffffffffffffffffffffffffffffff1673ffffffffffffffffffffffffffffffffffffffff168173ffffffffffffffffffffffffffffffffffffffff161480156101a45750814710155b5b156101f6578073ffffffffffffffffffffffffffffffffffffffff166108fc839081150290604051600060405180830381858888f193505050501580156101f0573d6000803e3d6000fd5b506101f7565b5b5050565b6000809054906101000a900473ffffffffffffffffffffffffffffffffffffffff1681565b56fea265627a7a72315820c7fdd3e0555caecb8eb2581db497bb9b35dda8077a841a706388a0b5dc5003c864736f6c63430005110032",
					"opcodes": "PUSH1 0x80 PUSH1 0x40 MSTORE PUSH20 0x77B2AD074A1AF1AF2A408E3D48465E5F9EC75F45 PUSH1 0x0 DUP1 PUSH2 0x100 EXP DUP2 SLOAD DUP2 PUSH20 0xFFFFFFFFFFFFFFFFFFFFFFFFFFFFFFFFFFFFFFFF MUL NOT AND SWAP1 DUP4 PUSH20 0xFFFFFFFFFFFFFFFFFFFFFFFFFFFFFFFFFFFFFFFF AND MUL OR SWAP1 SSTORE POP PUSH20 0x873AD450656C46CB564EAF418472A1C77D7327AD PUSH1 0x1 PUSH1 0x0 PUSH2 0x100 EXP DUP2 SLOAD DUP2 PUSH20 0xFFFFFFFFFFFFFFFFFFFFFFFFFFFFFFFFFFFFFFFF MUL NOT AND SWAP1 DUP4 PUSH20 0xFFFFFFFFFFFFFFFFFFFFFFFFFFFFFFFFFFFFFFFF AND MUL OR SWAP1 SSTORE POP PUSH1 0x40 MLOAD DUP1 PUSH1 0x40 ADD PUSH1 0x40 MSTORE DUP1 PUSH1 0x8 DUP2 MSTORE PUSH1 0x20 ADD PUSH32 0x4A616E6520446F65000000000000000000000000000000000000000000000000 DUP2 MSTORE POP PUSH1 0x2 SWAP1 DUP1 MLOAD SWAP1 PUSH1 0x20 ADD SWAP1 PUSH2 0xF8 SWAP3 SWAP2 SWAP1 PUSH2 0x10B JUMP JUMPDEST POP CALLVALUE DUP1 ISZERO PUSH2 0x105 JUMPI PUSH1 0x0 DUP1 REVERT JUMPDEST POP PUSH2 0x1B0 JUMP JUMPDEST DUP3 DUP1 SLOAD PUSH1 0x1 DUP2 PUSH1 0x1 AND ISZERO PUSH2 0x100 MUL SUB AND PUSH1 0x2 SWAP1 DIV SWAP1 PUSH1 0x0 MSTORE PUSH1 0x20 PUSH1 0x0 KECCAK256 SWAP1 PUSH1 0x1F ADD PUSH1 0x20 SWAP1 DIV DUP2 ADD SWAP3 DUP3 PUSH1 0x1F LT PUSH2 0x14C JUMPI DUP1 MLOAD PUSH1 0xFF NOT AND DUP4 DUP1 ADD OR DUP6 SSTORE PUSH2 0x17A JUMP JUMPDEST DUP3 DUP1 ADD PUSH1 0x1 ADD DUP6 SSTORE DUP3 ISZERO PUSH2 0x17A JUMPI SWAP2 DUP3 ADD JUMPDEST DUP3 DUP2 GT ISZERO PUSH2 0x179 JUMPI DUP3 MLOAD DUP3 SSTORE SWAP2 PUSH1 0x20 ADD SWAP2 SWAP1 PUSH1 0x1 ADD SWAP1 PUSH2 0x15E JUMP JUMPDEST JUMPDEST POP SWAP1 POP PUSH2 0x187 SWAP2 SWAP1 PUSH2 0x18B JUMP JUMPDEST POP SWAP1 JUMP JUMPDEST PUSH2 0x1AD SWAP2 SWAP1 JUMPDEST DUP1 DUP3 GT ISZERO PUSH2 0x1A9 JUMPI PUSH1 0x0 DUP2 PUSH1 0x0 SWAP1 SSTORE POP PUSH1 0x1 ADD PUSH2 0x191 JUMP JUMPDEST POP SWAP1 JUMP JUMPDEST SWAP1 JUMP JUMPDEST PUSH2 0x257 DUP1 PUSH2 0x1BF PUSH1 0x0 CODECOPY PUSH1 0x0 RETURN INVALID PUSH1 0x80 PUSH1 0x40 MSTORE PUSH1 0x4 CALLDATASIZE LT PUSH2 0x33 JUMPI PUSH1 0x0 CALLDATALOAD PUSH1 0xE0 SHR DUP1 PUSH3 0xF714CE EQ PUSH2 0x35 JUMPI DUP1 PUSH4 0xA3709963 EQ PUSH2 0x90 JUMPI DUP1 PUSH4 0xD0E30DB0 EQ PUSH2 0xE7 JUMPI JUMPDEST STOP JUMPDEST CALLVALUE DUP1 ISZERO PUSH2 0x41 JUMPI PUSH1 0x0 DUP1 REVERT JUMPDEST POP PUSH2 0x8E PUSH1 0x4 DUP1 CALLDATASIZE SUB PUSH1 0x40 DUP2 LT ISZERO PUSH2 0x58 JUMPI PUSH1 0x0 DUP1 REVERT JUMPDEST DUP2 ADD SWAP1 DUP1 DUP1 CALLDATALOAD SWAP1 PUSH1 0x20 ADD SWAP1 SWAP3 SWAP2 SWAP1 DUP1 CALLDATALOAD PUSH20 0xFFFFFFFFFFFFFFFFFFFFFFFFFFFFFFFFFFFFFFFF AND SWAP1 PUSH1 0x20 ADD SWAP1 SWAP3 SWAP2 SWAP1 POP POP POP PUSH2 0xF1 JUMP JUMPDEST STOP JUMPDEST CALLVALUE DUP1 ISZERO PUSH2 0x9C JUMPI PUSH1 0x0 DUP1 REVERT JUMPDEST POP PUSH2 0xA5 PUSH2 0x1FB JUMP JUMPDEST PUSH1 0x40 MLOAD DUP1 DUP3 PUSH20 0xFFFFFFFFFFFFFFFFFFFFFFFFFFFFFFFFFFFFFFFF AND PUSH20 0xFFFFFFFFFFFFFFFFFFFFFFFFFFFFFFFFFFFFFFFF AND DUP2 MSTORE PUSH1 0x20 ADD SWAP2 POP POP PUSH1 0x40 MLOAD DUP1 SWAP2 SUB SWAP1 RETURN JUMPDEST PUSH2 0xEF PUSH2 0x220 JUMP JUMPDEST STOP JUMPDEST PUSH1 0x0 DUP1 SWAP1 SLOAD SWAP1 PUSH2 0x100 EXP SWAP1 DIV PUSH20 0xFFFFFFFFFFFFFFFFFFFFFFFFFFFFFFFFFFFFFFFF AND PUSH20 0xFFFFFFFFFFFFFFFFFFFFFFFFFFFFFFFFFFFFFFFF AND DUP2 PUSH20 0xFFFFFFFFFFFFFFFFFFFFFFFFFFFFFFFFFFFFFFFF AND EQ DUP1 PUSH2 0x1A5 JUMPI POP PUSH1 0x1 PUSH1 0x0 SWAP1 SLOAD SWAP1 PUSH2 0x100 EXP SWAP1 DIV PUSH20 0xFFFFFFFFFFFFFFFFFFFFFFFFFFFFFFFFFFFFFFFF AND PUSH20 0xFFFFFFFFFFFFFFFFFFFFFFFFFFFFFFFFFFFFFFFF AND DUP2 PUSH20 0xFFFFFFFFFFFFFFFFFFFFFFFFFFFFFFFFFFFFFFFF AND EQ DUP1 ISZERO PUSH2 0x1A4 JUMPI POP DUP2 SELFBALANCE LT ISZERO JUMPDEST JUMPDEST ISZERO PUSH2 0x1F6 JUMPI DUP1 PUSH20 0xFFFFFFFFFFFFFFFFFFFFFFFFFFFFFFFFFFFFFFFF AND PUSH2 0x8FC DUP4 SWAP1 DUP2 ISZERO MUL SWAP1 PUSH1 0x40 MLOAD PUSH1 0x0 PUSH1 0x40 MLOAD DUP1 DUP4 SUB DUP2 DUP6 DUP9 DUP9 CALL SWAP4 POP POP POP POP ISZERO DUP1 ISZERO PUSH2 0x1F0 JUMPI RETURNDATASIZE PUSH1 0x0 DUP1 RETURNDATACOPY RETURNDATASIZE PUSH1 0x0 REVERT JUMPDEST POP PUSH2 0x1F7 JUMP JUMPDEST JUMPDEST POP POP JUMP JUMPDEST PUSH1 0x0 DUP1 SWAP1 SLOAD SWAP1 PUSH2 0x100 EXP SWAP1 DIV PUSH20 0xFFFFFFFFFFFFFFFFFFFFFFFFFFFFFFFFFFFFFFFF AND DUP2 JUMP JUMPDEST JUMP INVALID LOG2 PUSH6 0x627A7A723158 KECCAK256 0xC7 REVERT 0xD3 0xE0 SSTORE 0x5C 0xAE 0xCB DUP15 0xB2 PC SAR 0xB4 SWAP8 0xBB SWAP12 CALLDATALOAD 0xDD 0xA8 SMOD PUSH27 0x841A706388A0B5DC5003C864736F6C634300051100320000000000 "
				},
				"gasEstimates": {
					"creation": {
						"codeDepositCost": "119800",
						"executionCost": "infinite",
						"totalCost": "infinite"
					},
					"external": {
						"": "118",
						"deposit()": "142",
						"public_savings()": "1053",
						"withdraw(uint256,address)": "infinite"
					}
				},
				"methodIdentifiers": {
					"deposit()": "d0e30db0",
					"public_savings()": "a3709963",
					"withdraw(uint256,address)": "00f714ce"
				}
			},
			"storageLayout": {
				"storage": [
					{
						"astId": 4,
						"contract": "Module 20 - Smart Contracts/Class_2_Activities/05-Stu_Deploying_Contract/Unsolved/PersonalSavings.sol:PersonalSavings",
						"label": "public_savings",
						"offset": 0,
						"slot": "0",
						"type": "t_address_payable"
					},
					{
						"astId": 7,
						"contract": "Module 20 - Smart Contracts/Class_2_Activities/05-Stu_Deploying_Contract/Unsolved/PersonalSavings.sol:PersonalSavings",
						"label": "private_savings",
						"offset": 0,
						"slot": "1",
						"type": "t_address_payable"
					},
					{
						"astId": 10,
						"contract": "Module 20 - Smart Contracts/Class_2_Activities/05-Stu_Deploying_Contract/Unsolved/PersonalSavings.sol:PersonalSavings",
						"label": "account_holder",
						"offset": 0,
						"slot": "2",
						"type": "t_string_storage"
					}
				],
				"types": {
					"t_address_payable": {
						"encoding": "inplace",
						"label": "address payable",
						"numberOfBytes": "20"
					},
					"t_string_storage": {
						"encoding": "bytes",
						"label": "string",
						"numberOfBytes": "32"
					}
				}
			},
			"userdoc": {
				"methods": {}
			}
		}
	}
}